{"contracts/HackBank.sol":{"HackBank":{"abi":[{"anonymous":false,"inputs":[{"indexed":true,"internalType":"address","name":"sender","type":"address"},{"indexed":true,"internalType":"uint256","name":"CASNumber","type":"uint256"},{"indexed":false,"internalType":"uint256","name":"amount","type":"uint256"},{"indexed":false,"internalType":"address","name":"recipient","type":"address"},{"indexed":false,"internalType":"string","name":"bankAccountSortCode","type":"string"},{"indexed":false,"internalType":"string","name":"bankAccountNumber","type":"string"},{"indexed":false,"internalType":"string","name":"bankName","type":"string"}],"name":"PaymentProcessed","type":"event"},{"anonymous":false,"inputs":[{"indexed":true,"internalType":"address","name":"studentAddress","type":"address"},{"indexed":true,"internalType":"uint256","name":"CASNumber","type":"uint256"},{"indexed":false,"internalType":"string","name":"fullName","type":"string"},{"indexed":false,"internalType":"string","name":"email","type":"string"}],"name":"StudentRegistered","type":"event"},{"anonymous":false,"inputs":[{"indexed":true,"internalType":"address","name":"studentAddress","type":"address"},{"indexed":true,"internalType":"uint256","name":"CASNumber","type":"uint256"}],"name":"StudentVerified","type":"event"},{"inputs":[{"internalType":"uint256","name":"_CASNumber","type":"uint256"},{"internalType":"address","name":"_recipient","type":"address"},{"internalType":"string","name":"_bankAccountSortCode","type":"string"},{"internalType":"string","name":"_bankAccountNumber","type":"string"},{"internalType":"string","name":"_bankName","type":"string"}],"name":"processPayment","outputs":[],"stateMutability":"payable","type":"function"},{"inputs":[{"internalType":"uint256","name":"_CASNumber","type":"uint256"},{"internalType":"string","name":"_fullName","type":"string"},{"internalType":"string","name":"_email","type":"string"}],"name":"registerStudent","outputs":[],"stateMutability":"nonpayable","type":"function"},{"inputs":[{"internalType":"uint256","name":"","type":"uint256"}],"name":"students","outputs":[{"internalType":"address","name":"studentAddress","type":"address"},{"internalType":"uint256","name":"CASNumber","type":"uint256"},{"internalType":"string","name":"fullName","type":"string"},{"internalType":"string","name":"email","type":"string"},{"internalType":"bool","name":"registered","type":"bool"},{"internalType":"bool","name":"verified","type":"bool"}],"stateMutability":"view","type":"function"},{"inputs":[{"internalType":"uint256","name":"_CASNumber","type":"uint256"}],"name":"verifyStudent","outputs":[],"stateMutability":"nonpayable","type":"function"}],"evm":{"bytecode":{"linkReferences":{},"object":"6080604052610a8c60015534801561001657600080fd5b506117e4806100266000396000f3fe60806040526004361061003f5760003560e01c806306ead22e146100445780630a3d2fbf14610086578063aafb723c146100af578063e55dc98c146100d8575b600080fd5b34801561005057600080fd5b5061006b60048036038101906100669190610b96565b6100f4565b60405161007d96959493929190610cc7565b60405180910390f35b34801561009257600080fd5b506100ad60048036038101906100a89190610b96565b61027a565b005b3480156100bb57600080fd5b506100d660048036038101906100d19190610e6b565b6103fc565b005b6100f260048036038101906100ed9190610f22565b61074c565b005b60006020528060005260406000206000915090508060000160009054906101000a900473ffffffffffffffffffffffffffffffffffffffff169080600101549080600201805461014390611020565b80601f016020809104026020016040519081016040528092919081815260200182805461016f90611020565b80156101bc5780601f10610191576101008083540402835291602001916101bc565b820191906000526020600020905b81548152906001019060200180831161019f57829003601f168201915b5050505050908060030180546101d190611020565b80601f01602080910402602001604051908101604052809291908181526020018280546101fd90611020565b801561024a5780601f1061021f5761010080835404028352916020019161024a565b820191906000526020600020905b81548152906001019060200180831161022d57829003601f168201915b5050505050908060040160009054906101000a900460ff16908060040160019054906101000a900460ff16905086565b600080600083815260200190815260200160002090503373ffffffffffffffffffffffffffffffffffffffff168160000160009054906101000a900473ffffffffffffffffffffffffffffffffffffffff1673ffffffffffffffffffffffffffffffffffffffff1614610322576040517f08c379a0000000000000000000000000000000000000000000000000000000008152600401610319906110c4565b60405180910390fd5b8060040160009054906101000a900460ff16610373576040517f08c379a000000000000000000000000000000000000000000000000000000000815260040161036a90611130565b60405180910390fd5b60018160040160016101000a81548160ff021916908315150217905550818160000160009054906101000a900473ffffffffffffffffffffffffffffffffffffffff1673ffffffffffffffffffffffffffffffffffffffff167f2531bb4d2629abd431b0c1fe1dfa50a2359bcdf5d99a9f7d752d1658669118fa60405160405180910390a35050565b633b9aca00831015801561041457506402540be40083105b610453576040517f08c379a000000000000000000000000000000000000000000000000000000000815260040161044a906111c2565b60405180910390fd5b6000825111610497576040517f08c379a000000000000000000000000000000000000000000000000000000000815260040161048e9061122e565b60405180910390fd5b60008151116104db576040517f08c379a00000000000000000000000000000000000000000000000000000000081526004016104d29061129a565b60405180910390fd5b600073ffffffffffffffffffffffffffffffffffffffff1660008085815260200190815260200160002060000160009054906101000a900473ffffffffffffffffffffffffffffffffffffffff1673ffffffffffffffffffffffffffffffffffffffff161461057f576040517f08c379a000000000000000000000000000000000000000000000000000000000815260040161057690611306565b60405180910390fd5b61058881610a06565b6105c7576040517f08c379a00000000000000000000000000000000000000000000000000000000081526004016105be90611372565b60405180910390fd5b60006040518060c001604052803373ffffffffffffffffffffffffffffffffffffffff1681526020018581526020018481526020018381526020016001151581526020016000151581525090508060008086815260200190815260200160002060008201518160000160006101000a81548173ffffffffffffffffffffffffffffffffffffffff021916908373ffffffffffffffffffffffffffffffffffffffff160217905550602082015181600101556040820151816002019080519060200190610694929190610aa9565b5060608201518160030190805190602001906106b1929190610aa9565b5060808201518160040160006101000a81548160ff02191690831515021790555060a08201518160040160016101000a81548160ff021916908315150217905550905050833373ffffffffffffffffffffffffffffffffffffffff167fc59299df175472a7e9311901fe4493f6c1b82ff2ae8454680c9dae713ee56372858560405161073e929190611392565b60405180910390a350505050565b600080600087815260200190815260200160002090503373ffffffffffffffffffffffffffffffffffffffff168160000160009054906101000a900473ffffffffffffffffffffffffffffffffffffffff1673ffffffffffffffffffffffffffffffffffffffff16146107f4576040517f08c379a00000000000000000000000000000000000000000000000000000000081526004016107eb9061143b565b60405180910390fd5b8060040160009054906101000a900460ff16610845576040517f08c379a000000000000000000000000000000000000000000000000000000000815260040161083c90611130565b60405180910390fd5b8060040160019054906101000a900460ff16610896576040517f08c379a000000000000000000000000000000000000000000000000000000000815260040161088d906114a7565b60405180910390fd5b600034116108d9576040517f08c379a00000000000000000000000000000000000000000000000000000000081526004016108d090611513565b60405180910390fd5b6000620f4240600154346108ed9190611562565b6108f791906115eb565b905060008673ffffffffffffffffffffffffffffffffffffffff168260405161091f9061164d565b60006040518083038185875af1925050503d806000811461095c576040519150601f19603f3d011682016040523d82523d6000602084013e610961565b606091505b50509050806109a5576040517f08c379a000000000000000000000000000000000000000000000000000000000815260040161099c906116ae565b60405180910390fd5b873373ffffffffffffffffffffffffffffffffffffffff167f0ca9156c6ea5c04fc6442cb83d03421959866d1c9b73b1c63f8692a288c7e1b5848a8a8a8a6040516109f49594939291906116ce565b60405180910390a35050505050505050565b60008082905060005b8151811015610a9d577f4000000000000000000000000000000000000000000000000000000000000000828281518110610a4c57610a4b611736565b5b602001015160f81c60f81b7effffffffffffffffffffffffffffffffffffffffffffffffffffffffffffff19161415610a8a57600192505050610aa4565b8080610a9590611765565b915050610a0f565b5060009150505b919050565b828054610ab590611020565b90600052602060002090601f016020900481019282610ad75760008555610b1e565b82601f10610af057805160ff1916838001178555610b1e565b82800160010185558215610b1e579182015b82811115610b1d578251825591602001919060010190610b02565b5b509050610b2b9190610b2f565b5090565b5b80821115610b48576000816000905550600101610b30565b5090565b6000604051905090565b600080fd5b600080fd5b6000819050919050565b610b7381610b60565b8114610b7e57600080fd5b50565b600081359050610b9081610b6a565b92915050565b600060208284031215610bac57610bab610b56565b5b6000610bba84828501610b81565b91505092915050565b600073ffffffffffffffffffffffffffffffffffffffff82169050919050565b6000610bee82610bc3565b9050919050565b610bfe81610be3565b82525050565b610c0d81610b60565b82525050565b600081519050919050565b600082825260208201905092915050565b60005b83811015610c4d578082015181840152602081019050610c32565b83811115610c5c576000848401525b50505050565b6000601f19601f8301169050919050565b6000610c7e82610c13565b610c888185610c1e565b9350610c98818560208601610c2f565b610ca181610c62565b840191505092915050565b60008115159050919050565b610cc181610cac565b82525050565b600060c082019050610cdc6000830189610bf5565b610ce96020830188610c04565b8181036040830152610cfb8187610c73565b90508181036060830152610d0f8186610c73565b9050610d1e6080830185610cb8565b610d2b60a0830184610cb8565b979650505050505050565b600080fd5b600080fd5b7f4e487b7100000000000000000000000000000000000000000000000000000000600052604160045260246000fd5b610d7882610c62565b810181811067ffffffffffffffff82111715610d9757610d96610d40565b5b80604052505050565b6000610daa610b4c565b9050610db68282610d6f565b919050565b600067ffffffffffffffff821115610dd657610dd5610d40565b5b610ddf82610c62565b9050602081019050919050565b82818337600083830152505050565b6000610e0e610e0984610dbb565b610da0565b905082815260208101848484011115610e2a57610e29610d3b565b5b610e35848285610dec565b509392505050565b600082601f830112610e5257610e51610d36565b5b8135610e62848260208601610dfb565b91505092915050565b600080600060608486031215610e8457610e83610b56565b5b6000610e9286828701610b81565b935050602084013567ffffffffffffffff811115610eb357610eb2610b5b565b5b610ebf86828701610e3d565b925050604084013567ffffffffffffffff811115610ee057610edf610b5b565b5b610eec86828701610e3d565b9150509250925092565b610eff81610be3565b8114610f0a57600080fd5b50565b600081359050610f1c81610ef6565b92915050565b600080600080600060a08688031215610f3e57610f3d610b56565b5b6000610f4c88828901610b81565b9550506020610f5d88828901610f0d565b945050604086013567ffffffffffffffff811115610f7e57610f7d610b5b565b5b610f8a88828901610e3d565b935050606086013567ffffffffffffffff811115610fab57610faa610b5b565b5b610fb788828901610e3d565b925050608086013567ffffffffffffffff811115610fd857610fd7610b5b565b5b610fe488828901610e3d565b9150509295509295909350565b7f4e487b7100000000000000000000000000000000000000000000000000000000600052602260045260246000fd5b6000600282049050600182168061103857607f821691505b6020821081141561104c5761104b610ff1565b5b50919050565b7f596f752063616e206f6e6c792076657269667920796f7572206f776e2072656760008201527f697374726174696f6e0000000000000000000000000000000000000000000000602082015250565b60006110ae602983610c1e565b91506110b982611052565b604082019050919050565b600060208201905081810360008301526110dd816110a1565b9050919050565b7f53747564656e74206e6f7420726567697374657265642e000000000000000000600082015250565b600061111a601783610c1e565b9150611125826110e4565b602082019050919050565b600060208201905081810360008301526111498161110d565b9050919050565b7f434153204e756d626572206d7573742062652065786163746c7920313020646960008201527f6769747300000000000000000000000000000000000000000000000000000000602082015250565b60006111ac602483610c1e565b91506111b782611150565b604082019050919050565b600060208201905081810360008301526111db8161119f565b9050919050565b7f46756c6c204e616d65206d757374206e6f7420626520656d7074790000000000600082015250565b6000611218601b83610c1e565b9150611223826111e2565b602082019050919050565b600060208201905081810360008301526112478161120b565b9050919050565b7f456d61696c206d757374206e6f7420626520656d707479000000000000000000600082015250565b6000611284601783610c1e565b915061128f8261124e565b602082019050919050565b600060208201905081810360008301526112b381611277565b9050919050565b7f434153204e756d62657220616c72656164792072656769737465726564000000600082015250565b60006112f0601d83610c1e565b91506112fb826112ba565b602082019050919050565b6000602082019050818103600083015261131f816112e3565b9050919050565b7f496e76616c696420656d61696c20666f726d6174000000000000000000000000600082015250565b600061135c601483610c1e565b915061136782611326565b602082019050919050565b6000602082019050818103600083015261138b8161134f565b9050919050565b600060408201905081810360008301526113ac8185610c73565b905081810360208301526113c08184610c73565b90509392505050565b7f596f752063616e206f6e6c792070726f63657373207061796d656e7420666f7260008201527f20796f7572206f776e20726567697374726174696f6e00000000000000000000602082015250565b6000611425603683610c1e565b9150611430826113c9565b604082019050919050565b6000602082019050818103600083015261145481611418565b9050919050565b7f53747564656e74206e6f742076657269666965642e0000000000000000000000600082015250565b6000611491601583610c1e565b915061149c8261145b565b602082019050919050565b600060208201905081810360008301526114c081611484565b9050919050565b7f416d6f756e74206d7573742062652067726561746572207468616e2030000000600082015250565b60006114fd601d83610c1e565b9150611508826114c7565b602082019050919050565b6000602082019050818103600083015261152c816114f0565b9050919050565b7f4e487b7100000000000000000000000000000000000000000000000000000000600052601160045260246000fd5b600061156d82610b60565b915061157883610b60565b9250817fffffffffffffffffffffffffffffffffffffffffffffffffffffffffffffffff04831182151516156115b1576115b0611533565b5b828202905092915050565b7f4e487b7100000000000000000000000000000000000000000000000000000000600052601260045260246000fd5b60006115f682610b60565b915061160183610b60565b925082611611576116106115bc565b5b828204905092915050565b600081905092915050565b50565b600061163760008361161c565b915061164282611627565b600082019050919050565b60006116588261162a565b9150819050919050565b7f5061796d656e74206661696c6564000000000000000000000000000000000000600082015250565b6000611698600e83610c1e565b91506116a382611662565b602082019050919050565b600060208201905081810360008301526116c78161168b565b9050919050565b600060a0820190506116e36000830188610c04565b6116f06020830187610bf5565b81810360408301526117028186610c73565b905081810360608301526117168185610c73565b9050818103608083015261172a8184610c73565b90509695505050505050565b7f4e487b7100000000000000000000000000000000000000000000000000000000600052603260045260246000fd5b600061177082610b60565b91507fffffffffffffffffffffffffffffffffffffffffffffffffffffffffffffffff8214156117a3576117a2611533565b5b60018201905091905056fea2646970667358221220a48fb044352f14ad7a8c82b53333e1958d87dff4e5e49e69b74062cd95e1f1e364736f6c63430008090033","opcodes":"PUSH1 0x80 PUSH1 0x40 MSTORE PUSH2 0xA8C PUSH1 0x1 SSTORE CALLVALUE DUP1 ISZERO PUSH2 0x16 JUMPI PUSH1 0x0 DUP1 REVERT JUMPDEST POP PUSH2 0x17E4 DUP1 PUSH2 0x26 PUSH1 0x0 CODECOPY PUSH1 0x0 RETURN INVALID PUSH1 0x80 PUSH1 0x40 MSTORE PUSH1 0x4 CALLDATASIZE LT PUSH2 0x3F JUMPI PUSH1 0x0 CALLDATALOAD PUSH1 0xE0 SHR DUP1 PUSH4 0x6EAD22E EQ PUSH2 0x44 JUMPI DUP1 PUSH4 0xA3D2FBF EQ PUSH2 0x86 JUMPI DUP1 PUSH4 0xAAFB723C EQ PUSH2 0xAF JUMPI DUP1 PUSH4 0xE55DC98C EQ PUSH2 0xD8 JUMPI JUMPDEST PUSH1 0x0 DUP1 REVERT JUMPDEST CALLVALUE DUP1 ISZERO PUSH2 0x50 JUMPI PUSH1 0x0 DUP1 REVERT JUMPDEST POP PUSH2 0x6B PUSH1 0x4 DUP1 CALLDATASIZE SUB DUP2 ADD SWAP1 PUSH2 0x66 SWAP2 SWAP1 PUSH2 0xB96 JUMP JUMPDEST PUSH2 0xF4 JUMP JUMPDEST PUSH1 0x40 MLOAD PUSH2 0x7D SWAP7 SWAP6 SWAP5 SWAP4 SWAP3 SWAP2 SWAP1 PUSH2 0xCC7 JUMP JUMPDEST PUSH1 0x40 MLOAD DUP1 SWAP2 SUB SWAP1 RETURN JUMPDEST CALLVALUE DUP1 ISZERO PUSH2 0x92 JUMPI PUSH1 0x0 DUP1 REVERT JUMPDEST POP PUSH2 0xAD PUSH1 0x4 DUP1 CALLDATASIZE SUB DUP2 ADD SWAP1 PUSH2 0xA8 SWAP2 SWAP1 PUSH2 0xB96 JUMP JUMPDEST PUSH2 0x27A JUMP JUMPDEST STOP JUMPDEST CALLVALUE DUP1 ISZERO PUSH2 0xBB JUMPI PUSH1 0x0 DUP1 REVERT JUMPDEST POP PUSH2 0xD6 PUSH1 0x4 DUP1 CALLDATASIZE SUB DUP2 ADD SWAP1 PUSH2 0xD1 SWAP2 SWAP1 PUSH2 0xE6B JUMP JUMPDEST PUSH2 0x3FC JUMP JUMPDEST STOP JUMPDEST PUSH2 0xF2 PUSH1 0x4 DUP1 CALLDATASIZE SUB DUP2 ADD SWAP1 PUSH2 0xED SWAP2 SWAP1 PUSH2 0xF22 JUMP JUMPDEST PUSH2 0x74C JUMP JUMPDEST STOP JUMPDEST PUSH1 0x0 PUSH1 0x20 MSTORE DUP1 PUSH1 0x0 MSTORE PUSH1 0x40 PUSH1 0x0 KECCAK256 PUSH1 0x0 SWAP2 POP SWAP1 POP DUP1 PUSH1 0x0 ADD PUSH1 0x0 SWAP1 SLOAD SWAP1 PUSH2 0x100 EXP SWAP1 DIV PUSH20 0xFFFFFFFFFFFFFFFFFFFFFFFFFFFFFFFFFFFFFFFF AND SWAP1 DUP1 PUSH1 0x1 ADD SLOAD SWAP1 DUP1 PUSH1 0x2 ADD DUP1 SLOAD PUSH2 0x143 SWAP1 PUSH2 0x1020 JUMP JUMPDEST DUP1 PUSH1 0x1F ADD PUSH1 0x20 DUP1 SWAP2 DIV MUL PUSH1 0x20 ADD PUSH1 0x40 MLOAD SWAP1 DUP2 ADD PUSH1 0x40 MSTORE DUP1 SWAP3 SWAP2 SWAP1 DUP2 DUP2 MSTORE PUSH1 0x20 ADD DUP3 DUP1 SLOAD PUSH2 0x16F SWAP1 PUSH2 0x1020 JUMP JUMPDEST DUP1 ISZERO PUSH2 0x1BC JUMPI DUP1 PUSH1 0x1F LT PUSH2 0x191 JUMPI PUSH2 0x100 DUP1 DUP4 SLOAD DIV MUL DUP4 MSTORE SWAP2 PUSH1 0x20 ADD SWAP2 PUSH2 0x1BC JUMP JUMPDEST DUP3 ADD SWAP2 SWAP1 PUSH1 0x0 MSTORE PUSH1 0x20 PUSH1 0x0 KECCAK256 SWAP1 JUMPDEST DUP2 SLOAD DUP2 MSTORE SWAP1 PUSH1 0x1 ADD SWAP1 PUSH1 0x20 ADD DUP1 DUP4 GT PUSH2 0x19F JUMPI DUP3 SWAP1 SUB PUSH1 0x1F AND DUP3 ADD SWAP2 JUMPDEST POP POP POP POP POP SWAP1 DUP1 PUSH1 0x3 ADD DUP1 SLOAD PUSH2 0x1D1 SWAP1 PUSH2 0x1020 JUMP JUMPDEST DUP1 PUSH1 0x1F ADD PUSH1 0x20 DUP1 SWAP2 DIV MUL PUSH1 0x20 ADD PUSH1 0x40 MLOAD SWAP1 DUP2 ADD PUSH1 0x40 MSTORE DUP1 SWAP3 SWAP2 SWAP1 DUP2 DUP2 MSTORE PUSH1 0x20 ADD DUP3 DUP1 SLOAD PUSH2 0x1FD SWAP1 PUSH2 0x1020 JUMP JUMPDEST DUP1 ISZERO PUSH2 0x24A JUMPI DUP1 PUSH1 0x1F LT PUSH2 0x21F JUMPI PUSH2 0x100 DUP1 DUP4 SLOAD DIV MUL DUP4 MSTORE SWAP2 PUSH1 0x20 ADD SWAP2 PUSH2 0x24A JUMP JUMPDEST DUP3 ADD SWAP2 SWAP1 PUSH1 0x0 MSTORE PUSH1 0x20 PUSH1 0x0 KECCAK256 SWAP1 JUMPDEST DUP2 SLOAD DUP2 MSTORE SWAP1 PUSH1 0x1 ADD SWAP1 PUSH1 0x20 ADD DUP1 DUP4 GT PUSH2 0x22D JUMPI DUP3 SWAP1 SUB PUSH1 0x1F AND DUP3 ADD SWAP2 JUMPDEST POP POP POP POP POP SWAP1 DUP1 PUSH1 0x4 ADD PUSH1 0x0 SWAP1 SLOAD SWAP1 PUSH2 0x100 EXP SWAP1 DIV PUSH1 0xFF AND SWAP1 DUP1 PUSH1 0x4 ADD PUSH1 0x1 SWAP1 SLOAD SWAP1 PUSH2 0x100 EXP SWAP1 DIV PUSH1 0xFF AND SWAP1 POP DUP7 JUMP JUMPDEST PUSH1 0x0 DUP1 PUSH1 0x0 DUP4 DUP2 MSTORE PUSH1 0x20 ADD SWAP1 DUP2 MSTORE PUSH1 0x20 ADD PUSH1 0x0 KECCAK256 SWAP1 POP CALLER PUSH20 0xFFFFFFFFFFFFFFFFFFFFFFFFFFFFFFFFFFFFFFFF AND DUP2 PUSH1 0x0 ADD PUSH1 0x0 SWAP1 SLOAD SWAP1 PUSH2 0x100 EXP SWAP1 DIV PUSH20 0xFFFFFFFFFFFFFFFFFFFFFFFFFFFFFFFFFFFFFFFF AND PUSH20 0xFFFFFFFFFFFFFFFFFFFFFFFFFFFFFFFFFFFFFFFF AND EQ PUSH2 0x322 JUMPI PUSH1 0x40 MLOAD PUSH32 0x8C379A000000000000000000000000000000000000000000000000000000000 DUP2 MSTORE PUSH1 0x4 ADD PUSH2 0x319 SWAP1 PUSH2 0x10C4 JUMP JUMPDEST PUSH1 0x40 MLOAD DUP1 SWAP2 SUB SWAP1 REVERT JUMPDEST DUP1 PUSH1 0x4 ADD PUSH1 0x0 SWAP1 SLOAD SWAP1 PUSH2 0x100 EXP SWAP1 DIV PUSH1 0xFF AND PUSH2 0x373 JUMPI PUSH1 0x40 MLOAD PUSH32 0x8C379A000000000000000000000000000000000000000000000000000000000 DUP2 MSTORE PUSH1 0x4 ADD PUSH2 0x36A SWAP1 PUSH2 0x1130 JUMP JUMPDEST PUSH1 0x40 MLOAD DUP1 SWAP2 SUB SWAP1 REVERT JUMPDEST PUSH1 0x1 DUP2 PUSH1 0x4 ADD PUSH1 0x1 PUSH2 0x100 EXP DUP2 SLOAD DUP2 PUSH1 0xFF MUL NOT AND SWAP1 DUP4 ISZERO ISZERO MUL OR SWAP1 SSTORE POP DUP2 DUP2 PUSH1 0x0 ADD PUSH1 0x0 SWAP1 SLOAD SWAP1 PUSH2 0x100 EXP SWAP1 DIV PUSH20 0xFFFFFFFFFFFFFFFFFFFFFFFFFFFFFFFFFFFFFFFF AND PUSH20 0xFFFFFFFFFFFFFFFFFFFFFFFFFFFFFFFFFFFFFFFF AND PUSH32 0x2531BB4D2629ABD431B0C1FE1DFA50A2359BCDF5D99A9F7D752D1658669118FA PUSH1 0x40 MLOAD PUSH1 0x40 MLOAD DUP1 SWAP2 SUB SWAP1 LOG3 POP POP JUMP JUMPDEST PUSH4 0x3B9ACA00 DUP4 LT ISZERO DUP1 ISZERO PUSH2 0x414 JUMPI POP PUSH5 0x2540BE400 DUP4 LT JUMPDEST PUSH2 0x453 JUMPI PUSH1 0x40 MLOAD PUSH32 0x8C379A000000000000000000000000000000000000000000000000000000000 DUP2 MSTORE PUSH1 0x4 ADD PUSH2 0x44A SWAP1 PUSH2 0x11C2 JUMP JUMPDEST PUSH1 0x40 MLOAD DUP1 SWAP2 SUB SWAP1 REVERT JUMPDEST PUSH1 0x0 DUP3 MLOAD GT PUSH2 0x497 JUMPI PUSH1 0x40 MLOAD PUSH32 0x8C379A000000000000000000000000000000000000000000000000000000000 DUP2 MSTORE PUSH1 0x4 ADD PUSH2 0x48E SWAP1 PUSH2 0x122E JUMP JUMPDEST PUSH1 0x40 MLOAD DUP1 SWAP2 SUB SWAP1 REVERT JUMPDEST PUSH1 0x0 DUP2 MLOAD GT PUSH2 0x4DB JUMPI PUSH1 0x40 MLOAD PUSH32 0x8C379A000000000000000000000000000000000000000000000000000000000 DUP2 MSTORE PUSH1 0x4 ADD PUSH2 0x4D2 SWAP1 PUSH2 0x129A JUMP JUMPDEST PUSH1 0x40 MLOAD DUP1 SWAP2 SUB SWAP1 REVERT JUMPDEST PUSH1 0x0 PUSH20 0xFFFFFFFFFFFFFFFFFFFFFFFFFFFFFFFFFFFFFFFF AND PUSH1 0x0 DUP1 DUP6 DUP2 MSTORE PUSH1 0x20 ADD SWAP1 DUP2 MSTORE PUSH1 0x20 ADD PUSH1 0x0 KECCAK256 PUSH1 0x0 ADD PUSH1 0x0 SWAP1 SLOAD SWAP1 PUSH2 0x100 EXP SWAP1 DIV PUSH20 0xFFFFFFFFFFFFFFFFFFFFFFFFFFFFFFFFFFFFFFFF AND PUSH20 0xFFFFFFFFFFFFFFFFFFFFFFFFFFFFFFFFFFFFFFFF AND EQ PUSH2 0x57F JUMPI PUSH1 0x40 MLOAD PUSH32 0x8C379A000000000000000000000000000000000000000000000000000000000 DUP2 MSTORE PUSH1 0x4 ADD PUSH2 0x576 SWAP1 PUSH2 0x1306 JUMP JUMPDEST PUSH1 0x40 MLOAD DUP1 SWAP2 SUB SWAP1 REVERT JUMPDEST PUSH2 0x588 DUP2 PUSH2 0xA06 JUMP JUMPDEST PUSH2 0x5C7 JUMPI PUSH1 0x40 MLOAD PUSH32 0x8C379A000000000000000000000000000000000000000000000000000000000 DUP2 MSTORE PUSH1 0x4 ADD PUSH2 0x5BE SWAP1 PUSH2 0x1372 JUMP JUMPDEST PUSH1 0x40 MLOAD DUP1 SWAP2 SUB SWAP1 REVERT JUMPDEST PUSH1 0x0 PUSH1 0x40 MLOAD DUP1 PUSH1 0xC0 ADD PUSH1 0x40 MSTORE DUP1 CALLER PUSH20 0xFFFFFFFFFFFFFFFFFFFFFFFFFFFFFFFFFFFFFFFF AND DUP2 MSTORE PUSH1 0x20 ADD DUP6 DUP2 MSTORE PUSH1 0x20 ADD DUP5 DUP2 MSTORE PUSH1 0x20 ADD DUP4 DUP2 MSTORE PUSH1 0x20 ADD PUSH1 0x1 ISZERO ISZERO DUP2 MSTORE PUSH1 0x20 ADD PUSH1 0x0 ISZERO ISZERO DUP2 MSTORE POP SWAP1 POP DUP1 PUSH1 0x0 DUP1 DUP7 DUP2 MSTORE PUSH1 0x20 ADD SWAP1 DUP2 MSTORE PUSH1 0x20 ADD PUSH1 0x0 KECCAK256 PUSH1 0x0 DUP3 ADD MLOAD DUP2 PUSH1 0x0 ADD PUSH1 0x0 PUSH2 0x100 EXP DUP2 SLOAD DUP2 PUSH20 0xFFFFFFFFFFFFFFFFFFFFFFFFFFFFFFFFFFFFFFFF MUL NOT AND SWAP1 DUP4 PUSH20 0xFFFFFFFFFFFFFFFFFFFFFFFFFFFFFFFFFFFFFFFF AND MUL OR SWAP1 SSTORE POP PUSH1 0x20 DUP3 ADD MLOAD DUP2 PUSH1 0x1 ADD SSTORE PUSH1 0x40 DUP3 ADD MLOAD DUP2 PUSH1 0x2 ADD SWAP1 DUP1 MLOAD SWAP1 PUSH1 0x20 ADD SWAP1 PUSH2 0x694 SWAP3 SWAP2 SWAP1 PUSH2 0xAA9 JUMP JUMPDEST POP PUSH1 0x60 DUP3 ADD MLOAD DUP2 PUSH1 0x3 ADD SWAP1 DUP1 MLOAD SWAP1 PUSH1 0x20 ADD SWAP1 PUSH2 0x6B1 SWAP3 SWAP2 SWAP1 PUSH2 0xAA9 JUMP JUMPDEST POP PUSH1 0x80 DUP3 ADD MLOAD DUP2 PUSH1 0x4 ADD PUSH1 0x0 PUSH2 0x100 EXP DUP2 SLOAD DUP2 PUSH1 0xFF MUL NOT AND SWAP1 DUP4 ISZERO ISZERO MUL OR SWAP1 SSTORE POP PUSH1 0xA0 DUP3 ADD MLOAD DUP2 PUSH1 0x4 ADD PUSH1 0x1 PUSH2 0x100 EXP DUP2 SLOAD DUP2 PUSH1 0xFF MUL NOT AND SWAP1 DUP4 ISZERO ISZERO MUL OR SWAP1 SSTORE POP SWAP1 POP POP DUP4 CALLER PUSH20 0xFFFFFFFFFFFFFFFFFFFFFFFFFFFFFFFFFFFFFFFF AND PUSH32 0xC59299DF175472A7E9311901FE4493F6C1B82FF2AE8454680C9DAE713EE56372 DUP6 DUP6 PUSH1 0x40 MLOAD PUSH2 0x73E SWAP3 SWAP2 SWAP1 PUSH2 0x1392 JUMP JUMPDEST PUSH1 0x40 MLOAD DUP1 SWAP2 SUB SWAP1 LOG3 POP POP POP POP JUMP JUMPDEST PUSH1 0x0 DUP1 PUSH1 0x0 DUP8 DUP2 MSTORE PUSH1 0x20 ADD SWAP1 DUP2 MSTORE PUSH1 0x20 ADD PUSH1 0x0 KECCAK256 SWAP1 POP CALLER PUSH20 0xFFFFFFFFFFFFFFFFFFFFFFFFFFFFFFFFFFFFFFFF AND DUP2 PUSH1 0x0 ADD PUSH1 0x0 SWAP1 SLOAD SWAP1 PUSH2 0x100 EXP SWAP1 DIV PUSH20 0xFFFFFFFFFFFFFFFFFFFFFFFFFFFFFFFFFFFFFFFF AND PUSH20 0xFFFFFFFFFFFFFFFFFFFFFFFFFFFFFFFFFFFFFFFF AND EQ PUSH2 0x7F4 JUMPI PUSH1 0x40 MLOAD PUSH32 0x8C379A000000000000000000000000000000000000000000000000000000000 DUP2 MSTORE PUSH1 0x4 ADD PUSH2 0x7EB SWAP1 PUSH2 0x143B JUMP JUMPDEST PUSH1 0x40 MLOAD DUP1 SWAP2 SUB SWAP1 REVERT JUMPDEST DUP1 PUSH1 0x4 ADD PUSH1 0x0 SWAP1 SLOAD SWAP1 PUSH2 0x100 EXP SWAP1 DIV PUSH1 0xFF AND PUSH2 0x845 JUMPI PUSH1 0x40 MLOAD PUSH32 0x8C379A000000000000000000000000000000000000000000000000000000000 DUP2 MSTORE PUSH1 0x4 ADD PUSH2 0x83C SWAP1 PUSH2 0x1130 JUMP JUMPDEST PUSH1 0x40 MLOAD DUP1 SWAP2 SUB SWAP1 REVERT JUMPDEST DUP1 PUSH1 0x4 ADD PUSH1 0x1 SWAP1 SLOAD SWAP1 PUSH2 0x100 EXP SWAP1 DIV PUSH1 0xFF AND PUSH2 0x896 JUMPI PUSH1 0x40 MLOAD PUSH32 0x8C379A000000000000000000000000000000000000000000000000000000000 DUP2 MSTORE PUSH1 0x4 ADD PUSH2 0x88D SWAP1 PUSH2 0x14A7 JUMP JUMPDEST PUSH1 0x40 MLOAD DUP1 SWAP2 SUB SWAP1 REVERT JUMPDEST PUSH1 0x0 CALLVALUE GT PUSH2 0x8D9 JUMPI PUSH1 0x40 MLOAD PUSH32 0x8C379A000000000000000000000000000000000000000000000000000000000 DUP2 MSTORE PUSH1 0x4 ADD PUSH2 0x8D0 SWAP1 PUSH2 0x1513 JUMP JUMPDEST PUSH1 0x40 MLOAD DUP1 SWAP2 SUB SWAP1 REVERT JUMPDEST PUSH1 0x0 PUSH3 0xF4240 PUSH1 0x1 SLOAD CALLVALUE PUSH2 0x8ED SWAP2 SWAP1 PUSH2 0x1562 JUMP JUMPDEST PUSH2 0x8F7 SWAP2 SWAP1 PUSH2 0x15EB JUMP JUMPDEST SWAP1 POP PUSH1 0x0 DUP7 PUSH20 0xFFFFFFFFFFFFFFFFFFFFFFFFFFFFFFFFFFFFFFFF AND DUP3 PUSH1 0x40 MLOAD PUSH2 0x91F SWAP1 PUSH2 0x164D JUMP JUMPDEST PUSH1 0x0 PUSH1 0x40 MLOAD DUP1 DUP4 SUB DUP2 DUP6 DUP8 GAS CALL SWAP3 POP POP POP RETURNDATASIZE DUP1 PUSH1 0x0 DUP2 EQ PUSH2 0x95C JUMPI PUSH1 0x40 MLOAD SWAP2 POP PUSH1 0x1F NOT PUSH1 0x3F RETURNDATASIZE ADD AND DUP3 ADD PUSH1 0x40 MSTORE RETURNDATASIZE DUP3 MSTORE RETURNDATASIZE PUSH1 0x0 PUSH1 0x20 DUP5 ADD RETURNDATACOPY PUSH2 0x961 JUMP JUMPDEST PUSH1 0x60 SWAP2 POP JUMPDEST POP POP SWAP1 POP DUP1 PUSH2 0x9A5 JUMPI PUSH1 0x40 MLOAD PUSH32 0x8C379A000000000000000000000000000000000000000000000000000000000 DUP2 MSTORE PUSH1 0x4 ADD PUSH2 0x99C SWAP1 PUSH2 0x16AE JUMP JUMPDEST PUSH1 0x40 MLOAD DUP1 SWAP2 SUB SWAP1 REVERT JUMPDEST DUP8 CALLER PUSH20 0xFFFFFFFFFFFFFFFFFFFFFFFFFFFFFFFFFFFFFFFF AND PUSH32 0xCA9156C6EA5C04FC6442CB83D03421959866D1C9B73B1C63F8692A288C7E1B5 DUP5 DUP11 DUP11 DUP11 DUP11 PUSH1 0x40 MLOAD PUSH2 0x9F4 SWAP6 SWAP5 SWAP4 SWAP3 SWAP2 SWAP1 PUSH2 0x16CE JUMP JUMPDEST PUSH1 0x40 MLOAD DUP1 SWAP2 SUB SWAP1 LOG3 POP POP POP POP POP POP POP POP JUMP JUMPDEST PUSH1 0x0 DUP1 DUP3 SWAP1 POP PUSH1 0x0 JUMPDEST DUP2 MLOAD DUP2 LT ISZERO PUSH2 0xA9D JUMPI PUSH32 0x4000000000000000000000000000000000000000000000000000000000000000 DUP3 DUP3 DUP2 MLOAD DUP2 LT PUSH2 0xA4C JUMPI PUSH2 0xA4B PUSH2 0x1736 JUMP JUMPDEST JUMPDEST PUSH1 0x20 ADD ADD MLOAD PUSH1 0xF8 SHR PUSH1 0xF8 SHL PUSH31 0xFFFFFFFFFFFFFFFFFFFFFFFFFFFFFFFFFFFFFFFFFFFFFFFFFFFFFFFFFFFFFF NOT AND EQ ISZERO PUSH2 0xA8A JUMPI PUSH1 0x1 SWAP3 POP POP POP PUSH2 0xAA4 JUMP JUMPDEST DUP1 DUP1 PUSH2 0xA95 SWAP1 PUSH2 0x1765 JUMP JUMPDEST SWAP2 POP POP PUSH2 0xA0F JUMP JUMPDEST POP PUSH1 0x0 SWAP2 POP POP JUMPDEST SWAP2 SWAP1 POP JUMP JUMPDEST DUP3 DUP1 SLOAD PUSH2 0xAB5 SWAP1 PUSH2 0x1020 JUMP JUMPDEST SWAP1 PUSH1 0x0 MSTORE PUSH1 0x20 PUSH1 0x0 KECCAK256 SWAP1 PUSH1 0x1F ADD PUSH1 0x20 SWAP1 DIV DUP2 ADD SWAP3 DUP3 PUSH2 0xAD7 JUMPI PUSH1 0x0 DUP6 SSTORE PUSH2 0xB1E JUMP JUMPDEST DUP3 PUSH1 0x1F LT PUSH2 0xAF0 JUMPI DUP1 MLOAD PUSH1 0xFF NOT AND DUP4 DUP1 ADD OR DUP6 SSTORE PUSH2 0xB1E JUMP JUMPDEST DUP3 DUP1 ADD PUSH1 0x1 ADD DUP6 SSTORE DUP3 ISZERO PUSH2 0xB1E JUMPI SWAP2 DUP3 ADD JUMPDEST DUP3 DUP2 GT ISZERO PUSH2 0xB1D JUMPI DUP3 MLOAD DUP3 SSTORE SWAP2 PUSH1 0x20 ADD SWAP2 SWAP1 PUSH1 0x1 ADD SWAP1 PUSH2 0xB02 JUMP JUMPDEST JUMPDEST POP SWAP1 POP PUSH2 0xB2B SWAP2 SWAP1 PUSH2 0xB2F JUMP JUMPDEST POP SWAP1 JUMP JUMPDEST JUMPDEST DUP1 DUP3 GT ISZERO PUSH2 0xB48 JUMPI PUSH1 0x0 DUP2 PUSH1 0x0 SWAP1 SSTORE POP PUSH1 0x1 ADD PUSH2 0xB30 JUMP JUMPDEST POP SWAP1 JUMP JUMPDEST PUSH1 0x0 PUSH1 0x40 MLOAD SWAP1 POP SWAP1 JUMP JUMPDEST PUSH1 0x0 DUP1 REVERT JUMPDEST PUSH1 0x0 DUP1 REVERT JUMPDEST PUSH1 0x0 DUP2 SWAP1 POP SWAP2 SWAP1 POP JUMP JUMPDEST PUSH2 0xB73 DUP2 PUSH2 0xB60 JUMP JUMPDEST DUP2 EQ PUSH2 0xB7E JUMPI PUSH1 0x0 DUP1 REVERT JUMPDEST POP JUMP JUMPDEST PUSH1 0x0 DUP2 CALLDATALOAD SWAP1 POP PUSH2 0xB90 DUP2 PUSH2 0xB6A JUMP JUMPDEST SWAP3 SWAP2 POP POP JUMP JUMPDEST PUSH1 0x0 PUSH1 0x20 DUP3 DUP5 SUB SLT ISZERO PUSH2 0xBAC JUMPI PUSH2 0xBAB PUSH2 0xB56 JUMP JUMPDEST JUMPDEST PUSH1 0x0 PUSH2 0xBBA DUP5 DUP3 DUP6 ADD PUSH2 0xB81 JUMP JUMPDEST SWAP2 POP POP SWAP3 SWAP2 POP POP JUMP JUMPDEST PUSH1 0x0 PUSH20 0xFFFFFFFFFFFFFFFFFFFFFFFFFFFFFFFFFFFFFFFF DUP3 AND SWAP1 POP SWAP2 SWAP1 POP JUMP JUMPDEST PUSH1 0x0 PUSH2 0xBEE DUP3 PUSH2 0xBC3 JUMP JUMPDEST SWAP1 POP SWAP2 SWAP1 POP JUMP JUMPDEST PUSH2 0xBFE DUP2 PUSH2 0xBE3 JUMP JUMPDEST DUP3 MSTORE POP POP JUMP JUMPDEST PUSH2 0xC0D DUP2 PUSH2 0xB60 JUMP JUMPDEST DUP3 MSTORE POP POP JUMP JUMPDEST PUSH1 0x0 DUP2 MLOAD SWAP1 POP SWAP2 SWAP1 POP JUMP JUMPDEST PUSH1 0x0 DUP3 DUP3 MSTORE PUSH1 0x20 DUP3 ADD SWAP1 POP SWAP3 SWAP2 POP POP JUMP JUMPDEST PUSH1 0x0 JUMPDEST DUP4 DUP2 LT ISZERO PUSH2 0xC4D JUMPI DUP1 DUP3 ADD MLOAD DUP2 DUP5 ADD MSTORE PUSH1 0x20 DUP2 ADD SWAP1 POP PUSH2 0xC32 JUMP JUMPDEST DUP4 DUP2 GT ISZERO PUSH2 0xC5C JUMPI PUSH1 0x0 DUP5 DUP5 ADD MSTORE JUMPDEST POP POP POP POP JUMP JUMPDEST PUSH1 0x0 PUSH1 0x1F NOT PUSH1 0x1F DUP4 ADD AND SWAP1 POP SWAP2 SWAP1 POP JUMP JUMPDEST PUSH1 0x0 PUSH2 0xC7E DUP3 PUSH2 0xC13 JUMP JUMPDEST PUSH2 0xC88 DUP2 DUP6 PUSH2 0xC1E JUMP JUMPDEST SWAP4 POP PUSH2 0xC98 DUP2 DUP6 PUSH1 0x20 DUP7 ADD PUSH2 0xC2F JUMP JUMPDEST PUSH2 0xCA1 DUP2 PUSH2 0xC62 JUMP JUMPDEST DUP5 ADD SWAP2 POP POP SWAP3 SWAP2 POP POP JUMP JUMPDEST PUSH1 0x0 DUP2 ISZERO ISZERO SWAP1 POP SWAP2 SWAP1 POP JUMP JUMPDEST PUSH2 0xCC1 DUP2 PUSH2 0xCAC JUMP JUMPDEST DUP3 MSTORE POP POP JUMP JUMPDEST PUSH1 0x0 PUSH1 0xC0 DUP3 ADD SWAP1 POP PUSH2 0xCDC PUSH1 0x0 DUP4 ADD DUP10 PUSH2 0xBF5 JUMP JUMPDEST PUSH2 0xCE9 PUSH1 0x20 DUP4 ADD DUP9 PUSH2 0xC04 JUMP JUMPDEST DUP2 DUP2 SUB PUSH1 0x40 DUP4 ADD MSTORE PUSH2 0xCFB DUP2 DUP8 PUSH2 0xC73 JUMP JUMPDEST SWAP1 POP DUP2 DUP2 SUB PUSH1 0x60 DUP4 ADD MSTORE PUSH2 0xD0F DUP2 DUP7 PUSH2 0xC73 JUMP JUMPDEST SWAP1 POP PUSH2 0xD1E PUSH1 0x80 DUP4 ADD DUP6 PUSH2 0xCB8 JUMP JUMPDEST PUSH2 0xD2B PUSH1 0xA0 DUP4 ADD DUP5 PUSH2 0xCB8 JUMP JUMPDEST SWAP8 SWAP7 POP POP POP POP POP POP POP JUMP JUMPDEST PUSH1 0x0 DUP1 REVERT JUMPDEST PUSH1 0x0 DUP1 REVERT JUMPDEST PUSH32 0x4E487B7100000000000000000000000000000000000000000000000000000000 PUSH1 0x0 MSTORE PUSH1 0x41 PUSH1 0x4 MSTORE PUSH1 0x24 PUSH1 0x0 REVERT JUMPDEST PUSH2 0xD78 DUP3 PUSH2 0xC62 JUMP JUMPDEST DUP2 ADD DUP2 DUP2 LT PUSH8 0xFFFFFFFFFFFFFFFF DUP3 GT OR ISZERO PUSH2 0xD97 JUMPI PUSH2 0xD96 PUSH2 0xD40 JUMP JUMPDEST JUMPDEST DUP1 PUSH1 0x40 MSTORE POP POP POP JUMP JUMPDEST PUSH1 0x0 PUSH2 0xDAA PUSH2 0xB4C JUMP JUMPDEST SWAP1 POP PUSH2 0xDB6 DUP3 DUP3 PUSH2 0xD6F JUMP JUMPDEST SWAP2 SWAP1 POP JUMP JUMPDEST PUSH1 0x0 PUSH8 0xFFFFFFFFFFFFFFFF DUP3 GT ISZERO PUSH2 0xDD6 JUMPI PUSH2 0xDD5 PUSH2 0xD40 JUMP JUMPDEST JUMPDEST PUSH2 0xDDF DUP3 PUSH2 0xC62 JUMP JUMPDEST SWAP1 POP PUSH1 0x20 DUP2 ADD SWAP1 POP SWAP2 SWAP1 POP JUMP JUMPDEST DUP3 DUP2 DUP4 CALLDATACOPY PUSH1 0x0 DUP4 DUP4 ADD MSTORE POP POP POP JUMP JUMPDEST PUSH1 0x0 PUSH2 0xE0E PUSH2 0xE09 DUP5 PUSH2 0xDBB JUMP JUMPDEST PUSH2 0xDA0 JUMP JUMPDEST SWAP1 POP DUP3 DUP2 MSTORE PUSH1 0x20 DUP2 ADD DUP5 DUP5 DUP5 ADD GT ISZERO PUSH2 0xE2A JUMPI PUSH2 0xE29 PUSH2 0xD3B JUMP JUMPDEST JUMPDEST PUSH2 0xE35 DUP5 DUP3 DUP6 PUSH2 0xDEC JUMP JUMPDEST POP SWAP4 SWAP3 POP POP POP JUMP JUMPDEST PUSH1 0x0 DUP3 PUSH1 0x1F DUP4 ADD SLT PUSH2 0xE52 JUMPI PUSH2 0xE51 PUSH2 0xD36 JUMP JUMPDEST JUMPDEST DUP2 CALLDATALOAD PUSH2 0xE62 DUP5 DUP3 PUSH1 0x20 DUP7 ADD PUSH2 0xDFB JUMP JUMPDEST SWAP2 POP POP SWAP3 SWAP2 POP POP JUMP JUMPDEST PUSH1 0x0 DUP1 PUSH1 0x0 PUSH1 0x60 DUP5 DUP7 SUB SLT ISZERO PUSH2 0xE84 JUMPI PUSH2 0xE83 PUSH2 0xB56 JUMP JUMPDEST JUMPDEST PUSH1 0x0 PUSH2 0xE92 DUP7 DUP3 DUP8 ADD PUSH2 0xB81 JUMP JUMPDEST SWAP4 POP POP PUSH1 0x20 DUP5 ADD CALLDATALOAD PUSH8 0xFFFFFFFFFFFFFFFF DUP2 GT ISZERO PUSH2 0xEB3 JUMPI PUSH2 0xEB2 PUSH2 0xB5B JUMP JUMPDEST JUMPDEST PUSH2 0xEBF DUP7 DUP3 DUP8 ADD PUSH2 0xE3D JUMP JUMPDEST SWAP3 POP POP PUSH1 0x40 DUP5 ADD CALLDATALOAD PUSH8 0xFFFFFFFFFFFFFFFF DUP2 GT ISZERO PUSH2 0xEE0 JUMPI PUSH2 0xEDF PUSH2 0xB5B JUMP JUMPDEST JUMPDEST PUSH2 0xEEC DUP7 DUP3 DUP8 ADD PUSH2 0xE3D JUMP JUMPDEST SWAP2 POP POP SWAP3 POP SWAP3 POP SWAP3 JUMP JUMPDEST PUSH2 0xEFF DUP2 PUSH2 0xBE3 JUMP JUMPDEST DUP2 EQ PUSH2 0xF0A JUMPI PUSH1 0x0 DUP1 REVERT JUMPDEST POP JUMP JUMPDEST PUSH1 0x0 DUP2 CALLDATALOAD SWAP1 POP PUSH2 0xF1C DUP2 PUSH2 0xEF6 JUMP JUMPDEST SWAP3 SWAP2 POP POP JUMP JUMPDEST PUSH1 0x0 DUP1 PUSH1 0x0 DUP1 PUSH1 0x0 PUSH1 0xA0 DUP7 DUP9 SUB SLT ISZERO PUSH2 0xF3E JUMPI PUSH2 0xF3D PUSH2 0xB56 JUMP JUMPDEST JUMPDEST PUSH1 0x0 PUSH2 0xF4C DUP9 DUP3 DUP10 ADD PUSH2 0xB81 JUMP JUMPDEST SWAP6 POP POP PUSH1 0x20 PUSH2 0xF5D DUP9 DUP3 DUP10 ADD PUSH2 0xF0D JUMP JUMPDEST SWAP5 POP POP PUSH1 0x40 DUP7 ADD CALLDATALOAD PUSH8 0xFFFFFFFFFFFFFFFF DUP2 GT ISZERO PUSH2 0xF7E JUMPI PUSH2 0xF7D PUSH2 0xB5B JUMP JUMPDEST JUMPDEST PUSH2 0xF8A DUP9 DUP3 DUP10 ADD PUSH2 0xE3D JUMP JUMPDEST SWAP4 POP POP PUSH1 0x60 DUP7 ADD CALLDATALOAD PUSH8 0xFFFFFFFFFFFFFFFF DUP2 GT ISZERO PUSH2 0xFAB JUMPI PUSH2 0xFAA PUSH2 0xB5B JUMP JUMPDEST JUMPDEST PUSH2 0xFB7 DUP9 DUP3 DUP10 ADD PUSH2 0xE3D JUMP JUMPDEST SWAP3 POP POP PUSH1 0x80 DUP7 ADD CALLDATALOAD PUSH8 0xFFFFFFFFFFFFFFFF DUP2 GT ISZERO PUSH2 0xFD8 JUMPI PUSH2 0xFD7 PUSH2 0xB5B JUMP JUMPDEST JUMPDEST PUSH2 0xFE4 DUP9 DUP3 DUP10 ADD PUSH2 0xE3D JUMP JUMPDEST SWAP2 POP POP SWAP3 SWAP6 POP SWAP3 SWAP6 SWAP1 SWAP4 POP JUMP JUMPDEST PUSH32 0x4E487B7100000000000000000000000000000000000000000000000000000000 PUSH1 0x0 MSTORE PUSH1 0x22 PUSH1 0x4 MSTORE PUSH1 0x24 PUSH1 0x0 REVERT JUMPDEST PUSH1 0x0 PUSH1 0x2 DUP3 DIV SWAP1 POP PUSH1 0x1 DUP3 AND DUP1 PUSH2 0x1038 JUMPI PUSH1 0x7F DUP3 AND SWAP2 POP JUMPDEST PUSH1 0x20 DUP3 LT DUP2 EQ ISZERO PUSH2 0x104C JUMPI PUSH2 0x104B PUSH2 0xFF1 JUMP JUMPDEST JUMPDEST POP SWAP2 SWAP1 POP JUMP JUMPDEST PUSH32 0x596F752063616E206F6E6C792076657269667920796F7572206F776E20726567 PUSH1 0x0 DUP3 ADD MSTORE PUSH32 0x697374726174696F6E0000000000000000000000000000000000000000000000 PUSH1 0x20 DUP3 ADD MSTORE POP JUMP JUMPDEST PUSH1 0x0 PUSH2 0x10AE PUSH1 0x29 DUP4 PUSH2 0xC1E JUMP JUMPDEST SWAP2 POP PUSH2 0x10B9 DUP3 PUSH2 0x1052 JUMP JUMPDEST PUSH1 0x40 DUP3 ADD SWAP1 POP SWAP2 SWAP1 POP JUMP JUMPDEST PUSH1 0x0 PUSH1 0x20 DUP3 ADD SWAP1 POP DUP2 DUP2 SUB PUSH1 0x0 DUP4 ADD MSTORE PUSH2 0x10DD DUP2 PUSH2 0x10A1 JUMP JUMPDEST SWAP1 POP SWAP2 SWAP1 POP JUMP JUMPDEST PUSH32 0x53747564656E74206E6F7420726567697374657265642E000000000000000000 PUSH1 0x0 DUP3 ADD MSTORE POP JUMP JUMPDEST PUSH1 0x0 PUSH2 0x111A PUSH1 0x17 DUP4 PUSH2 0xC1E JUMP JUMPDEST SWAP2 POP PUSH2 0x1125 DUP3 PUSH2 0x10E4 JUMP JUMPDEST PUSH1 0x20 DUP3 ADD SWAP1 POP SWAP2 SWAP1 POP JUMP JUMPDEST PUSH1 0x0 PUSH1 0x20 DUP3 ADD SWAP1 POP DUP2 DUP2 SUB PUSH1 0x0 DUP4 ADD MSTORE PUSH2 0x1149 DUP2 PUSH2 0x110D JUMP JUMPDEST SWAP1 POP SWAP2 SWAP1 POP JUMP JUMPDEST PUSH32 0x434153204E756D626572206D7573742062652065786163746C79203130206469 PUSH1 0x0 DUP3 ADD MSTORE PUSH32 0x6769747300000000000000000000000000000000000000000000000000000000 PUSH1 0x20 DUP3 ADD MSTORE POP JUMP JUMPDEST PUSH1 0x0 PUSH2 0x11AC PUSH1 0x24 DUP4 PUSH2 0xC1E JUMP JUMPDEST SWAP2 POP PUSH2 0x11B7 DUP3 PUSH2 0x1150 JUMP JUMPDEST PUSH1 0x40 DUP3 ADD SWAP1 POP SWAP2 SWAP1 POP JUMP JUMPDEST PUSH1 0x0 PUSH1 0x20 DUP3 ADD SWAP1 POP DUP2 DUP2 SUB PUSH1 0x0 DUP4 ADD MSTORE PUSH2 0x11DB DUP2 PUSH2 0x119F JUMP JUMPDEST SWAP1 POP SWAP2 SWAP1 POP JUMP JUMPDEST PUSH32 0x46756C6C204E616D65206D757374206E6F7420626520656D7074790000000000 PUSH1 0x0 DUP3 ADD MSTORE POP JUMP JUMPDEST PUSH1 0x0 PUSH2 0x1218 PUSH1 0x1B DUP4 PUSH2 0xC1E JUMP JUMPDEST SWAP2 POP PUSH2 0x1223 DUP3 PUSH2 0x11E2 JUMP JUMPDEST PUSH1 0x20 DUP3 ADD SWAP1 POP SWAP2 SWAP1 POP JUMP JUMPDEST PUSH1 0x0 PUSH1 0x20 DUP3 ADD SWAP1 POP DUP2 DUP2 SUB PUSH1 0x0 DUP4 ADD MSTORE PUSH2 0x1247 DUP2 PUSH2 0x120B JUMP JUMPDEST SWAP1 POP SWAP2 SWAP1 POP JUMP JUMPDEST PUSH32 0x456D61696C206D757374206E6F7420626520656D707479000000000000000000 PUSH1 0x0 DUP3 ADD MSTORE POP JUMP JUMPDEST PUSH1 0x0 PUSH2 0x1284 PUSH1 0x17 DUP4 PUSH2 0xC1E JUMP JUMPDEST SWAP2 POP PUSH2 0x128F DUP3 PUSH2 0x124E JUMP JUMPDEST PUSH1 0x20 DUP3 ADD SWAP1 POP SWAP2 SWAP1 POP JUMP JUMPDEST PUSH1 0x0 PUSH1 0x20 DUP3 ADD SWAP1 POP DUP2 DUP2 SUB PUSH1 0x0 DUP4 ADD MSTORE PUSH2 0x12B3 DUP2 PUSH2 0x1277 JUMP JUMPDEST SWAP1 POP SWAP2 SWAP1 POP JUMP JUMPDEST PUSH32 0x434153204E756D62657220616C72656164792072656769737465726564000000 PUSH1 0x0 DUP3 ADD MSTORE POP JUMP JUMPDEST PUSH1 0x0 PUSH2 0x12F0 PUSH1 0x1D DUP4 PUSH2 0xC1E JUMP JUMPDEST SWAP2 POP PUSH2 0x12FB DUP3 PUSH2 0x12BA JUMP JUMPDEST PUSH1 0x20 DUP3 ADD SWAP1 POP SWAP2 SWAP1 POP JUMP JUMPDEST PUSH1 0x0 PUSH1 0x20 DUP3 ADD SWAP1 POP DUP2 DUP2 SUB PUSH1 0x0 DUP4 ADD MSTORE PUSH2 0x131F DUP2 PUSH2 0x12E3 JUMP JUMPDEST SWAP1 POP SWAP2 SWAP1 POP JUMP JUMPDEST PUSH32 0x496E76616C696420656D61696C20666F726D6174000000000000000000000000 PUSH1 0x0 DUP3 ADD MSTORE POP JUMP JUMPDEST PUSH1 0x0 PUSH2 0x135C PUSH1 0x14 DUP4 PUSH2 0xC1E JUMP JUMPDEST SWAP2 POP PUSH2 0x1367 DUP3 PUSH2 0x1326 JUMP JUMPDEST PUSH1 0x20 DUP3 ADD SWAP1 POP SWAP2 SWAP1 POP JUMP JUMPDEST PUSH1 0x0 PUSH1 0x20 DUP3 ADD SWAP1 POP DUP2 DUP2 SUB PUSH1 0x0 DUP4 ADD MSTORE PUSH2 0x138B DUP2 PUSH2 0x134F JUMP JUMPDEST SWAP1 POP SWAP2 SWAP1 POP JUMP JUMPDEST PUSH1 0x0 PUSH1 0x40 DUP3 ADD SWAP1 POP DUP2 DUP2 SUB PUSH1 0x0 DUP4 ADD MSTORE PUSH2 0x13AC DUP2 DUP6 PUSH2 0xC73 JUMP JUMPDEST SWAP1 POP DUP2 DUP2 SUB PUSH1 0x20 DUP4 ADD MSTORE PUSH2 0x13C0 DUP2 DUP5 PUSH2 0xC73 JUMP JUMPDEST SWAP1 POP SWAP4 SWAP3 POP POP POP JUMP JUMPDEST PUSH32 0x596F752063616E206F6E6C792070726F63657373207061796D656E7420666F72 PUSH1 0x0 DUP3 ADD MSTORE PUSH32 0x20796F7572206F776E20726567697374726174696F6E00000000000000000000 PUSH1 0x20 DUP3 ADD MSTORE POP JUMP JUMPDEST PUSH1 0x0 PUSH2 0x1425 PUSH1 0x36 DUP4 PUSH2 0xC1E JUMP JUMPDEST SWAP2 POP PUSH2 0x1430 DUP3 PUSH2 0x13C9 JUMP JUMPDEST PUSH1 0x40 DUP3 ADD SWAP1 POP SWAP2 SWAP1 POP JUMP JUMPDEST PUSH1 0x0 PUSH1 0x20 DUP3 ADD SWAP1 POP DUP2 DUP2 SUB PUSH1 0x0 DUP4 ADD MSTORE PUSH2 0x1454 DUP2 PUSH2 0x1418 JUMP JUMPDEST SWAP1 POP SWAP2 SWAP1 POP JUMP JUMPDEST PUSH32 0x53747564656E74206E6F742076657269666965642E0000000000000000000000 PUSH1 0x0 DUP3 ADD MSTORE POP JUMP JUMPDEST PUSH1 0x0 PUSH2 0x1491 PUSH1 0x15 DUP4 PUSH2 0xC1E JUMP JUMPDEST SWAP2 POP PUSH2 0x149C DUP3 PUSH2 0x145B JUMP JUMPDEST PUSH1 0x20 DUP3 ADD SWAP1 POP SWAP2 SWAP1 POP JUMP JUMPDEST PUSH1 0x0 PUSH1 0x20 DUP3 ADD SWAP1 POP DUP2 DUP2 SUB PUSH1 0x0 DUP4 ADD MSTORE PUSH2 0x14C0 DUP2 PUSH2 0x1484 JUMP JUMPDEST SWAP1 POP SWAP2 SWAP1 POP JUMP JUMPDEST PUSH32 0x416D6F756E74206D7573742062652067726561746572207468616E2030000000 PUSH1 0x0 DUP3 ADD MSTORE POP JUMP JUMPDEST PUSH1 0x0 PUSH2 0x14FD PUSH1 0x1D DUP4 PUSH2 0xC1E JUMP JUMPDEST SWAP2 POP PUSH2 0x1508 DUP3 PUSH2 0x14C7 JUMP JUMPDEST PUSH1 0x20 DUP3 ADD SWAP1 POP SWAP2 SWAP1 POP JUMP JUMPDEST PUSH1 0x0 PUSH1 0x20 DUP3 ADD SWAP1 POP DUP2 DUP2 SUB PUSH1 0x0 DUP4 ADD MSTORE PUSH2 0x152C DUP2 PUSH2 0x14F0 JUMP JUMPDEST SWAP1 POP SWAP2 SWAP1 POP JUMP JUMPDEST PUSH32 0x4E487B7100000000000000000000000000000000000000000000000000000000 PUSH1 0x0 MSTORE PUSH1 0x11 PUSH1 0x4 MSTORE PUSH1 0x24 PUSH1 0x0 REVERT JUMPDEST PUSH1 0x0 PUSH2 0x156D DUP3 PUSH2 0xB60 JUMP JUMPDEST SWAP2 POP PUSH2 0x1578 DUP4 PUSH2 0xB60 JUMP JUMPDEST SWAP3 POP DUP2 PUSH32 0xFFFFFFFFFFFFFFFFFFFFFFFFFFFFFFFFFFFFFFFFFFFFFFFFFFFFFFFFFFFFFFFF DIV DUP4 GT DUP3 ISZERO ISZERO AND ISZERO PUSH2 0x15B1 JUMPI PUSH2 0x15B0 PUSH2 0x1533 JUMP JUMPDEST JUMPDEST DUP3 DUP3 MUL SWAP1 POP SWAP3 SWAP2 POP POP JUMP JUMPDEST PUSH32 0x4E487B7100000000000000000000000000000000000000000000000000000000 PUSH1 0x0 MSTORE PUSH1 0x12 PUSH1 0x4 MSTORE PUSH1 0x24 PUSH1 0x0 REVERT JUMPDEST PUSH1 0x0 PUSH2 0x15F6 DUP3 PUSH2 0xB60 JUMP JUMPDEST SWAP2 POP PUSH2 0x1601 DUP4 PUSH2 0xB60 JUMP JUMPDEST SWAP3 POP DUP3 PUSH2 0x1611 JUMPI PUSH2 0x1610 PUSH2 0x15BC JUMP JUMPDEST JUMPDEST DUP3 DUP3 DIV SWAP1 POP SWAP3 SWAP2 POP POP JUMP JUMPDEST PUSH1 0x0 DUP2 SWAP1 POP SWAP3 SWAP2 POP POP JUMP JUMPDEST POP JUMP JUMPDEST PUSH1 0x0 PUSH2 0x1637 PUSH1 0x0 DUP4 PUSH2 0x161C JUMP JUMPDEST SWAP2 POP PUSH2 0x1642 DUP3 PUSH2 0x1627 JUMP JUMPDEST PUSH1 0x0 DUP3 ADD SWAP1 POP SWAP2 SWAP1 POP JUMP JUMPDEST PUSH1 0x0 PUSH2 0x1658 DUP3 PUSH2 0x162A JUMP JUMPDEST SWAP2 POP DUP2 SWAP1 POP SWAP2 SWAP1 POP JUMP JUMPDEST PUSH32 0x5061796D656E74206661696C6564000000000000000000000000000000000000 PUSH1 0x0 DUP3 ADD MSTORE POP JUMP JUMPDEST PUSH1 0x0 PUSH2 0x1698 PUSH1 0xE DUP4 PUSH2 0xC1E JUMP JUMPDEST SWAP2 POP PUSH2 0x16A3 DUP3 PUSH2 0x1662 JUMP JUMPDEST PUSH1 0x20 DUP3 ADD SWAP1 POP SWAP2 SWAP1 POP JUMP JUMPDEST PUSH1 0x0 PUSH1 0x20 DUP3 ADD SWAP1 POP DUP2 DUP2 SUB PUSH1 0x0 DUP4 ADD MSTORE PUSH2 0x16C7 DUP2 PUSH2 0x168B JUMP JUMPDEST SWAP1 POP SWAP2 SWAP1 POP JUMP JUMPDEST PUSH1 0x0 PUSH1 0xA0 DUP3 ADD SWAP1 POP PUSH2 0x16E3 PUSH1 0x0 DUP4 ADD DUP9 PUSH2 0xC04 JUMP JUMPDEST PUSH2 0x16F0 PUSH1 0x20 DUP4 ADD DUP8 PUSH2 0xBF5 JUMP JUMPDEST DUP2 DUP2 SUB PUSH1 0x40 DUP4 ADD MSTORE PUSH2 0x1702 DUP2 DUP7 PUSH2 0xC73 JUMP JUMPDEST SWAP1 POP DUP2 DUP2 SUB PUSH1 0x60 DUP4 ADD MSTORE PUSH2 0x1716 DUP2 DUP6 PUSH2 0xC73 JUMP JUMPDEST SWAP1 POP DUP2 DUP2 SUB PUSH1 0x80 DUP4 ADD MSTORE PUSH2 0x172A DUP2 DUP5 PUSH2 0xC73 JUMP JUMPDEST SWAP1 POP SWAP7 SWAP6 POP POP POP POP POP POP JUMP JUMPDEST PUSH32 0x4E487B7100000000000000000000000000000000000000000000000000000000 PUSH1 0x0 MSTORE PUSH1 0x32 PUSH1 0x4 MSTORE PUSH1 0x24 PUSH1 0x0 REVERT JUMPDEST PUSH1 0x0 PUSH2 0x1770 DUP3 PUSH2 0xB60 JUMP JUMPDEST SWAP2 POP PUSH32 0xFFFFFFFFFFFFFFFFFFFFFFFFFFFFFFFFFFFFFFFFFFFFFFFFFFFFFFFFFFFFFFFF DUP3 EQ ISZERO PUSH2 0x17A3 JUMPI PUSH2 0x17A2 PUSH2 0x1533 JUMP JUMPDEST JUMPDEST PUSH1 0x1 DUP3 ADD SWAP1 POP SWAP2 SWAP1 POP JUMP INVALID LOG2 PUSH5 0x6970667358 0x22 SLT KECCAK256 LOG4 DUP16 0xB0 DIFFICULTY CALLDATALOAD 0x2F EQ 0xAD PUSH27 0x8C82B53333E1958D87DFF4E5E49E69B74062CD95E1F1E364736F6C PUSH4 0x43000809 STOP CALLER "},"methodIdentifiers":{"processPayment(uint256,address,string,string,string)":"e55dc98c","registerStudent(uint256,string,string)":"aafb723c","students(uint256)":"06ead22e","verifyStudent(uint256)":"0a3d2fbf"}}}}}