{
  "_format": "hh-sol-artifact-1",
  "contractName": "HackBank",
  "sourceName": "contracts/HackBank.sol",
  "abi": [
    {
      "anonymous": false,
      "inputs": [
        {
          "indexed": true,
          "internalType": "address",
          "name": "sender",
          "type": "address"
        },
        {
          "indexed": true,
          "internalType": "uint256",
          "name": "CASNumber",
          "type": "uint256"
        },
        {
          "indexed": false,
          "internalType": "uint256",
          "name": "amount",
          "type": "uint256"
        },
        {
          "indexed": false,
          "internalType": "address",
          "name": "recipient",
          "type": "address"
        },
        {
          "indexed": false,
          "internalType": "string",
          "name": "bankAccountSortCode",
          "type": "string"
        },
        {
          "indexed": false,
          "internalType": "string",
          "name": "bankAccountNumber",
          "type": "string"
        },
        {
          "indexed": false,
          "internalType": "string",
          "name": "bankName",
          "type": "string"
        }
      ],
      "name": "PaymentProcessed",
      "type": "event"
    },
    {
      "anonymous": false,
      "inputs": [
        {
          "indexed": true,
          "internalType": "address",
          "name": "studentAddress",
          "type": "address"
        },
        {
          "indexed": true,
          "internalType": "uint256",
          "name": "CASNumber",
          "type": "uint256"
        },
        {
          "indexed": false,
          "internalType": "string",
          "name": "fullName",
          "type": "string"
        },
        {
          "indexed": false,
          "internalType": "string",
          "name": "email",
          "type": "string"
        }
      ],
      "name": "StudentRegistered",
      "type": "event"
    },
    {
      "anonymous": false,
      "inputs": [
        {
          "indexed": true,
          "internalType": "address",
          "name": "studentAddress",
          "type": "address"
        },
        {
          "indexed": true,
          "internalType": "uint256",
          "name": "CASNumber",
          "type": "uint256"
        }
      ],
      "name": "StudentVerified",
      "type": "event"
    },
    {
      "inputs": [
        {
          "internalType": "uint256",
          "name": "_CASNumber",
          "type": "uint256"
        },
        {
          "internalType": "address",
          "name": "_recipient",
          "type": "address"
        },
        {
          "internalType": "string",
          "name": "_bankAccountSortCode",
          "type": "string"
        },
        {
          "internalType": "string",
          "name": "_bankAccountNumber",
          "type": "string"
        },
        {
          "internalType": "string",
          "name": "_bankName",
          "type": "string"
        }
      ],
      "name": "processPayment",
      "outputs": [],
      "stateMutability": "payable",
      "type": "function"
    },
    {
      "inputs": [
        {
          "internalType": "uint256",
          "name": "_CASNumber",
          "type": "uint256"
        },
        {
          "internalType": "string",
          "name": "_fullName",
          "type": "string"
        },
        {
          "internalType": "string",
          "name": "_email",
          "type": "string"
        }
      ],
      "name": "registerStudent",
      "outputs": [],
      "stateMutability": "nonpayable",
      "type": "function"
    },
    {
      "inputs": [
        {
          "internalType": "uint256",
          "name": "",
          "type": "uint256"
        }
      ],
      "name": "students",
      "outputs": [
        {
          "internalType": "address",
          "name": "studentAddress",
          "type": "address"
        },
        {
          "internalType": "uint256",
          "name": "CASNumber",
          "type": "uint256"
        },
        {
          "internalType": "string",
          "name": "fullName",
          "type": "string"
        },
        {
          "internalType": "string",
          "name": "email",
          "type": "string"
        },
        {
          "internalType": "bool",
          "name": "registered",
          "type": "bool"
        },
        {
          "internalType": "bool",
          "name": "verified",
          "type": "bool"
        }
      ],
      "stateMutability": "view",
      "type": "function"
    },
    {
      "inputs": [
        {
          "internalType": "uint256",
          "name": "_CASNumber",
          "type": "uint256"
        }
      ],
      "name": "verifyStudent",
      "outputs": [],
      "stateMutability": "nonpayable",
      "type": "function"
    }
  ],
  "bytecode": "0x6080604052610a8c60015534801561001657600080fd5b506117e4806100266000396000f3fe60806040526004361061003f5760003560e01c806306ead22e146100445780630a3d2fbf14610086578063aafb723c146100af578063e55dc98c146100d8575b600080fd5b34801561005057600080fd5b5061006b60048036038101906100669190610b96565b6100f4565b60405161007d96959493929190610cc7565b60405180910390f35b34801561009257600080fd5b506100ad60048036038101906100a89190610b96565b61027a565b005b3480156100bb57600080fd5b506100d660048036038101906100d19190610e6b565b6103fc565b005b6100f260048036038101906100ed9190610f22565b61074c565b005b60006020528060005260406000206000915090508060000160009054906101000a900473ffffffffffffffffffffffffffffffffffffffff169080600101549080600201805461014390611020565b80601f016020809104026020016040519081016040528092919081815260200182805461016f90611020565b80156101bc5780601f10610191576101008083540402835291602001916101bc565b820191906000526020600020905b81548152906001019060200180831161019f57829003601f168201915b5050505050908060030180546101d190611020565b80601f01602080910402602001604051908101604052809291908181526020018280546101fd90611020565b801561024a5780601f1061021f5761010080835404028352916020019161024a565b820191906000526020600020905b81548152906001019060200180831161022d57829003601f168201915b5050505050908060040160009054906101000a900460ff16908060040160019054906101000a900460ff16905086565b600080600083815260200190815260200160002090503373ffffffffffffffffffffffffffffffffffffffff168160000160009054906101000a900473ffffffffffffffffffffffffffffffffffffffff1673ffffffffffffffffffffffffffffffffffffffff1614610322576040517f08c379a0000000000000000000000000000000000000000000000000000000008152600401610319906110c4565b60405180910390fd5b8060040160009054906101000a900460ff16610373576040517f08c379a000000000000000000000000000000000000000000000000000000000815260040161036a90611130565b60405180910390fd5b60018160040160016101000a81548160ff021916908315150217905550818160000160009054906101000a900473ffffffffffffffffffffffffffffffffffffffff1673ffffffffffffffffffffffffffffffffffffffff167f2531bb4d2629abd431b0c1fe1dfa50a2359bcdf5d99a9f7d752d1658669118fa60405160405180910390a35050565b633b9aca00831015801561041457506402540be40083105b610453576040517f08c379a000000000000000000000000000000000000000000000000000000000815260040161044a906111c2565b60405180910390fd5b6000825111610497576040517f08c379a000000000000000000000000000000000000000000000000000000000815260040161048e9061122e565b60405180910390fd5b60008151116104db576040517f08c379a00000000000000000000000000000000000000000000000000000000081526004016104d29061129a565b60405180910390fd5b600073ffffffffffffffffffffffffffffffffffffffff1660008085815260200190815260200160002060000160009054906101000a900473ffffffffffffffffffffffffffffffffffffffff1673ffffffffffffffffffffffffffffffffffffffff161461057f576040517f08c379a000000000000000000000000000000000000000000000000000000000815260040161057690611306565b60405180910390fd5b61058881610a06565b6105c7576040517f08c379a00000000000000000000000000000000000000000000000000000000081526004016105be90611372565b60405180910390fd5b60006040518060c001604052803373ffffffffffffffffffffffffffffffffffffffff1681526020018581526020018481526020018381526020016001151581526020016000151581525090508060008086815260200190815260200160002060008201518160000160006101000a81548173ffffffffffffffffffffffffffffffffffffffff021916908373ffffffffffffffffffffffffffffffffffffffff160217905550602082015181600101556040820151816002019080519060200190610694929190610aa9565b5060608201518160030190805190602001906106b1929190610aa9565b5060808201518160040160006101000a81548160ff02191690831515021790555060a08201518160040160016101000a81548160ff021916908315150217905550905050833373ffffffffffffffffffffffffffffffffffffffff167fc59299df175472a7e9311901fe4493f6c1b82ff2ae8454680c9dae713ee56372858560405161073e929190611392565b60405180910390a350505050565b600080600087815260200190815260200160002090503373ffffffffffffffffffffffffffffffffffffffff168160000160009054906101000a900473ffffffffffffffffffffffffffffffffffffffff1673ffffffffffffffffffffffffffffffffffffffff16146107f4576040517f08c379a00000000000000000000000000000000000000000000000000000000081526004016107eb9061143b565b60405180910390fd5b8060040160009054906101000a900460ff16610845576040517f08c379a000000000000000000000000000000000000000000000000000000000815260040161083c90611130565b60405180910390fd5b8060040160019054906101000a900460ff16610896576040517f08c379a000000000000000000000000000000000000000000000000000000000815260040161088d906114a7565b60405180910390fd5b600034116108d9576040517f08c379a00000000000000000000000000000000000000000000000000000000081526004016108d090611513565b60405180910390fd5b6000620f4240600154346108ed9190611562565b6108f791906115eb565b905060008673ffffffffffffffffffffffffffffffffffffffff168260405161091f9061164d565b60006040518083038185875af1925050503d806000811461095c576040519150601f19603f3d011682016040523d82523d6000602084013e610961565b606091505b50509050806109a5576040517f08c379a000000000000000000000000000000000000000000000000000000000815260040161099c906116ae565b60405180910390fd5b873373ffffffffffffffffffffffffffffffffffffffff167f0ca9156c6ea5c04fc6442cb83d03421959866d1c9b73b1c63f8692a288c7e1b5848a8a8a8a6040516109f49594939291906116ce565b60405180910390a35050505050505050565b60008082905060005b8151811015610a9d577f4000000000000000000000000000000000000000000000000000000000000000828281518110610a4c57610a4b611736565b5b602001015160f81c60f81b7effffffffffffffffffffffffffffffffffffffffffffffffffffffffffffff19161415610a8a57600192505050610aa4565b8080610a9590611765565b915050610a0f565b5060009150505b919050565b828054610ab590611020565b90600052602060002090601f016020900481019282610ad75760008555610b1e565b82601f10610af057805160ff1916838001178555610b1e565b82800160010185558215610b1e579182015b82811115610b1d578251825591602001919060010190610b02565b5b509050610b2b9190610b2f565b5090565b5b80821115610b48576000816000905550600101610b30565b5090565b6000604051905090565b600080fd5b600080fd5b6000819050919050565b610b7381610b60565b8114610b7e57600080fd5b50565b600081359050610b9081610b6a565b92915050565b600060208284031215610bac57610bab610b56565b5b6000610bba84828501610b81565b91505092915050565b600073ffffffffffffffffffffffffffffffffffffffff82169050919050565b6000610bee82610bc3565b9050919050565b610bfe81610be3565b82525050565b610c0d81610b60565b82525050565b600081519050919050565b600082825260208201905092915050565b60005b83811015610c4d578082015181840152602081019050610c32565b83811115610c5c576000848401525b50505050565b6000601f19601f8301169050919050565b6000610c7e82610c13565b610c888185610c1e565b9350610c98818560208601610c2f565b610ca181610c62565b840191505092915050565b60008115159050919050565b610cc181610cac565b82525050565b600060c082019050610cdc6000830189610bf5565b610ce96020830188610c04565b8181036040830152610cfb8187610c73565b90508181036060830152610d0f8186610c73565b9050610d1e6080830185610cb8565b610d2b60a0830184610cb8565b979650505050505050565b600080fd5b600080fd5b7f4e487b7100000000000000000000000000000000000000000000000000000000600052604160045260246000fd5b610d7882610c62565b810181811067ffffffffffffffff82111715610d9757610d96610d40565b5b80604052505050565b6000610daa610b4c565b9050610db68282610d6f565b919050565b600067ffffffffffffffff821115610dd657610dd5610d40565b5b610ddf82610c62565b9050602081019050919050565b82818337600083830152505050565b6000610e0e610e0984610dbb565b610da0565b905082815260208101848484011115610e2a57610e29610d3b565b5b610e35848285610dec565b509392505050565b600082601f830112610e5257610e51610d36565b5b8135610e62848260208601610dfb565b91505092915050565b600080600060608486031215610e8457610e83610b56565b5b6000610e9286828701610b81565b935050602084013567ffffffffffffffff811115610eb357610eb2610b5b565b5b610ebf86828701610e3d565b925050604084013567ffffffffffffffff811115610ee057610edf610b5b565b5b610eec86828701610e3d565b9150509250925092565b610eff81610be3565b8114610f0a57600080fd5b50565b600081359050610f1c81610ef6565b92915050565b600080600080600060a08688031215610f3e57610f3d610b56565b5b6000610f4c88828901610b81565b9550506020610f5d88828901610f0d565b945050604086013567ffffffffffffffff811115610f7e57610f7d610b5b565b5b610f8a88828901610e3d565b935050606086013567ffffffffffffffff811115610fab57610faa610b5b565b5b610fb788828901610e3d565b925050608086013567ffffffffffffffff811115610fd857610fd7610b5b565b5b610fe488828901610e3d565b9150509295509295909350565b7f4e487b7100000000000000000000000000000000000000000000000000000000600052602260045260246000fd5b6000600282049050600182168061103857607f821691505b6020821081141561104c5761104b610ff1565b5b50919050565b7f596f752063616e206f6e6c792076657269667920796f7572206f776e2072656760008201527f697374726174696f6e0000000000000000000000000000000000000000000000602082015250565b60006110ae602983610c1e565b91506110b982611052565b604082019050919050565b600060208201905081810360008301526110dd816110a1565b9050919050565b7f53747564656e74206e6f7420726567697374657265642e000000000000000000600082015250565b600061111a601783610c1e565b9150611125826110e4565b602082019050919050565b600060208201905081810360008301526111498161110d565b9050919050565b7f434153204e756d626572206d7573742062652065786163746c7920313020646960008201527f6769747300000000000000000000000000000000000000000000000000000000602082015250565b60006111ac602483610c1e565b91506111b782611150565b604082019050919050565b600060208201905081810360008301526111db8161119f565b9050919050565b7f46756c6c204e616d65206d757374206e6f7420626520656d7074790000000000600082015250565b6000611218601b83610c1e565b9150611223826111e2565b602082019050919050565b600060208201905081810360008301526112478161120b565b9050919050565b7f456d61696c206d757374206e6f7420626520656d707479000000000000000000600082015250565b6000611284601783610c1e565b915061128f8261124e565b602082019050919050565b600060208201905081810360008301526112b381611277565b9050919050565b7f434153204e756d62657220616c72656164792072656769737465726564000000600082015250565b60006112f0601d83610c1e565b91506112fb826112ba565b602082019050919050565b6000602082019050818103600083015261131f816112e3565b9050919050565b7f496e76616c696420656d61696c20666f726d6174000000000000000000000000600082015250565b600061135c601483610c1e565b915061136782611326565b602082019050919050565b6000602082019050818103600083015261138b8161134f565b9050919050565b600060408201905081810360008301526113ac8185610c73565b905081810360208301526113c08184610c73565b90509392505050565b7f596f752063616e206f6e6c792070726f63657373207061796d656e7420666f7260008201527f20796f7572206f776e20726567697374726174696f6e00000000000000000000602082015250565b6000611425603683610c1e565b9150611430826113c9565b604082019050919050565b6000602082019050818103600083015261145481611418565b9050919050565b7f53747564656e74206e6f742076657269666965642e0000000000000000000000600082015250565b6000611491601583610c1e565b915061149c8261145b565b602082019050919050565b600060208201905081810360008301526114c081611484565b9050919050565b7f416d6f756e74206d7573742062652067726561746572207468616e2030000000600082015250565b60006114fd601d83610c1e565b9150611508826114c7565b602082019050919050565b6000602082019050818103600083015261152c816114f0565b9050919050565b7f4e487b7100000000000000000000000000000000000000000000000000000000600052601160045260246000fd5b600061156d82610b60565b915061157883610b60565b9250817fffffffffffffffffffffffffffffffffffffffffffffffffffffffffffffffff04831182151516156115b1576115b0611533565b5b828202905092915050565b7f4e487b7100000000000000000000000000000000000000000000000000000000600052601260045260246000fd5b60006115f682610b60565b915061160183610b60565b925082611611576116106115bc565b5b828204905092915050565b600081905092915050565b50565b600061163760008361161c565b915061164282611627565b600082019050919050565b60006116588261162a565b9150819050919050565b7f5061796d656e74206661696c6564000000000000000000000000000000000000600082015250565b6000611698600e83610c1e565b91506116a382611662565b602082019050919050565b600060208201905081810360008301526116c78161168b565b9050919050565b600060a0820190506116e36000830188610c04565b6116f06020830187610bf5565b81810360408301526117028186610c73565b905081810360608301526117168185610c73565b9050818103608083015261172a8184610c73565b90509695505050505050565b7f4e487b7100000000000000000000000000000000000000000000000000000000600052603260045260246000fd5b600061177082610b60565b91507fffffffffffffffffffffffffffffffffffffffffffffffffffffffffffffffff8214156117a3576117a2611533565b5b60018201905091905056fea2646970667358221220a48fb044352f14ad7a8c82b53333e1958d87dff4e5e49e69b74062cd95e1f1e364736f6c63430008090033",
  "linkReferences": {},
  "deployedLinkReferences": {}
}